:1000000033C000004DC000004BC0000049C00000DC
:1000100047C0000045C0000043C0000041C00000D0
:100020003FC000000C94150C3BC0000057C00000FE
:1000300037C0000035C0000033C0000031C00000F0
:100040002FC000002DC000000C949C0B0C94D40B0E
:1000500027C0000025C0000023C0000021C0000010
:100060001FC000001DC0000011241FBECFEFD8E04C
:10007000DEBFCDBF12E0A0E0B1E0E0EBF9E102C0ED
:1000800005900D92AA30B107D9F712E0AAE0B2E0CC
:1000900001C01D92AE32B107E1F703D00C94D60C2B
:1000A000AFCF109229021092280260E072EC81E03A
:1000B00090E00E949A0B88E893E10E944F0CA8D12F
:1000C0008823E9F7A1D28823D1F71ED30097B9F787
:1000D0008FEF90E061E07FEFB2D0F1CF1F920F92EF
:1000E0000FB60F9211242F933F934F935F936F930B
:1000F0007F938F939F93AF93BF93EF93FF938091E1
:10010000280290912902009709F07DD0FF91EF918C
:10011000BF91AF919F918F917F916F915F914F911F
:100120003F912F910F900FBE0F901F901895883020
:1001300060F421E030E002C0220F331F8A95E2F71D
:10014000AAE2B0E0EBE2F0E025C08E3070F490E07F
:10015000089721E030E002C0220F331F8A95E2F7B2
:10016000A4E2B0E0E5E2F0E015C0853170F490E083
:100170000E9721E030E002C0220F331F8A95E2F78C
:10018000A7E2B0E0E8E2F0E005C020E0A0E0B0E0E7
:10019000E0E0F0E06F3F19F48081822709C0662318
:1001A00019F08081822B04C09081822F8095892351
:1001B00080838C91822B8C93089582E090E06F93E2
:1001C00064E06A95F1F76F910197C9F7089580E0AF
:1001D00090E00E94290B109221021092200289E0E7
:1001E00061E0A5DF88E061E0A2CF80E090E00E94BE
:1001F0004C0B109227021092260282E061E097DFFA
:1002000087E061E094CF80E090E00E94290B10929B
:1002100021021092200280E090E00E944C0B10928C
:1002200027021092260289E061E081DF88E061E028
:100230007EDF82E061E07BDF87E061E078CF0F93D3
:100240001F93CF93DF93EC018B01009729F4611585
:10025000710581F4D8DF4FC0809120029091210276
:100260001C161D0624F4181619069CF005C097FFED
:1002700009C00FC0ACDF10C089E060E058DF9DDF2F
:1002800088E005C088E060E052DF97DF89E061E048
:100290004EDFCE010E94290BD0932102C093200291
:1002A0001016110644F48091260290912702181628
:1002B0001906D4F00CC00115110539F08091260201
:1002C0009091270297FF09C00FC08FDF10C082E016
:1002D00060E02DDF72DF87E005C087E060E027DFA8
:1002E0006CDF82E061E023DFC8010E944C0B1093B9
:1002F000270200932602DF91CF911F910F9108955D
:10030000EF92FF920F931F93CF93DF938C017B01AA
:10031000EA0179DFF8941092800010928100B70111
:10032000882777FD8095982F81D520E030E044EB39
:1003300053E47DD423E638E247E05EE383D325E946
:100340003FEB46E557E373D4CDD5709389006093B6
:100350008800809181008860809381008091810075
:1003600084608093810080916F00826080936F0031
:1003700078940115110531F4662777276C1B7D0BE6
:10038000CE0108C00130110531F4882799278C1B54
:100390009D0BBE0154DFCDB7DEB7E6E00C94C70C71
:1003A00084E090E06F9364E06A95F1F76F910197B4
:1003B000C9F708951F9380E00E94430A22E0883520
:1003C000920710F011E001C012E081E00E94430AA0
:1003D00022E08835920718F4812F880F180F82E0E9
:1003E0000E94430A22E08835920720F4812F880F6B
:1003F000880F180F83E00E94430A22E08835920795
:1004000020F487E0189F102D1124812F1F9108954B
:100410001F9381E090E09093290280932802CADF25
:10042000182F8130C9F18630D9F087303CF4833001
:1004300089F0853079F0823051F50FC08A30A9F00B
:100440008B301CF4873019F508C08531B1F0833248
:10045000F1F410C081E09FEF12C08FEF90E002C076
:1004600081E09FEF61E07FEF0CC08FEF90E06DECDB
:1004700070E007C08FEF90E002C08DEC90E06FEF6E
:1004800070E0DDDE109229021092280206C08FEF84
:1004900090E061E07FEFD3DE10E0812F1F9108959F
:1004A000A0E0B0E0E6E5F2E00C94A30C80E090E080
:1004B000DC018093220290932302A0932402B09344
:1004C000250280932A0290932B02A0932C02B093D2
:1004D0002D02CAE0D0E0992488247724662410E015
:1004E00000E0FF24EE2486E00E94920ABC0180E036
:1004F00090E047D59B01AC01D801F7016B2F702F1D
:100500008F2F9E2D4DD2162F072FF82EE92E48DF64
:1005100084E00E94920ABC0180E090E032D59B0109
:10052000AC01D401F3016B2F782D8F2F962D38D28B
:10053000962E872E782E692E33DF2197A1F6A801FB
:100540009701652F742F832F922F20E030E040E237
:1005500051E46DD3D62EC72EB82EA92EA601950133
:10056000852F942FA32FB22F80932A0290932B02D2
:10057000A0932C02B0932D02A4019301652F742F38
:10058000832F922F20E030E040E251E450D3F62E4A
:10059000072F182FE92E862F902FA12FBE2D809385
:1005A000220290932302A0932402B0932502A60175
:1005B0009501652F742F832F922F2F2D302F412FD0
:1005C0005E2D09D487FF04C0FD2C0C2D1B2DEA2CB9
:1005D0006F2D702F812F9E2D24EA30E743EB53E4DB
:1005E000DFD19B01AC0160E078E488E496E41FD39E
:1005F00020E030E040E85FE3D3D174D4CB01CDB745
:10060000DEB7EEE00C94BF0C81E090E090932902FD
:100610008093280245DF833191050CF073C060910F
:100620002A0270912B0280912C0290912D0220E0E1
:1006300030E040E751E4CFD387FF16C0609122023B
:1006400070912302809124029091250220E030E0F5
:1006500040E951E495D318163CF480E090E06AE05C
:1006600070E04FEF50E04CDE609122027091230267
:10067000809124029091250220E030E040E751E48F
:10068000AAD387FF16C060912A0270912B02809135
:100690002C0290912D0220E030E040E951E470D32B
:1006A00018163CF481E090E06AE070E04FEF50E013
:1006B00027DE60912A0270912B0280912C0290918A
:1006C0002D0220E030E040E751E485D387FF14C0DD
:1006D0006091220270912302809124029091250260
:1006E00020E030E040E751E476D387FF05C08FEF8C
:1006F00090E06FEF70E0A3DD1092290210922802C3
:1007000081E0089580E0089580E090E00895A0E001
:10071000B0E0EDE8F3E00C94A30CFC01EA01808169
:10072000823008F438C1DB019C91923008F430C16A
:10073000843059F4943009F02EC1918111968C9136
:100740001197981709F021C126C1943009F420C1EE
:100750009230B1F4823009F01EC1CA01AF0128E025
:10076000DA010D90AD01DC010D92CD012150C1F7F0
:10077000DB0111968C9111979181892389830AC19C
:10078000823009F405C1C280D380DB0112966D90DE
:100790007C90139724813581468157811496ED9082
:1007A000FD900D911C911797C601861997095C0160
:1007B00097FF04C0AA24BB24A81AB90AB0E2AB165A
:1007C000B1040CF061C0181619066CF53701480128
:1007D0000A2C04C096948794779467940A94D2F76D
:1007E00081E090E0A0E0B0E00A2C04C0880F991FDF
:1007F000AA1FBB1F0A94D2F70197A109B1098E2144
:100800009F21A023B123EE24FF248701E3940097C6
:10081000A105B10519F4EE24FF248701E628F72885
:10082000082919293CC00097D1F1CA0CDB1C3901F9
:100830004A010A2C04C096948794779467940A948A
:10084000D2F781E090E0A0E0B0E00A2C04C0880F6D
:10085000991FAA1FBB1F0A94D2F70197A109B109DA
:1008600082239323A423B52321E030E040E050E02D
:100870000097A105B10519F420E030E0A90126296F
:100880003729482959290BC06C147D0424F4EE241F
:10089000FF24870104C0630120E030E0A9018181C9
:1008A000FB019181891709F445C0882349F0D801DB
:1008B000C701821B930BA40BB50B9C01AD0104C0B7
:1008C0002E193F09400B510B57FD04C01982DB82E2
:1008D000CA820BC081E08983DB82CA825095409531
:1008E000309521953F4F4F4F5F4F2C833D834E8373
:1008F0005F830DC0880F991FAA1FBB1F8C839D8328
:10090000AE83BF838A819B8101979B838A838C817D
:100910009D81AE81BF819C01AD012150304040409E
:1009200050402F3FEFEF3E07EFEF4E07EFE35E073C
:1009300008F30BC08983DB82CA822E0D3F1D401F46
:10094000511F2C833D834E835F8383E088832C81FA
:100950003D814E815F8157FF1DC0DA01C901817061
:100960009070A070B0705695479537952795822B5B
:10097000932BA42BB52B8C839D83AE83BF838A815D
:100980009B8101969B838A8305C0E2E0F1E003C06E
:10099000FB0101C0FE01CF01CDB7DEB7EEE0EFC72E
:1009A000A0E2B0E0E5EDF4E0D6C769837A838B83FB
:1009B0009C832D833E834F83588789E0E82EF12C5A
:1009C000EC0EFD1ECE010196B70176D48E010F5EAE
:1009D0001F4FCE010596B8016FD4C701B801AE0113
:1009E000475E5F4F94DE9BD3A096E6E0D0C7A0E2BF
:1009F000B0E0ECEFF4E0AFC769837A838B839C832C
:100A00002D833E834F8358878E01075F1F4FCE0192
:100A10000196B80151D491E1E92EF12CEC0EFD1EA6
:100A2000CE010596B70148D48A8991E089278A8B3F
:100A3000C801B701AE01475E5F4F69DE70D3A09673
:100A4000E6E0A5C7A0E2B0E0E7E2F5E078C7698399
:100A50007A838B839C832D833E834F835887CE017B
:100A60000196BE01675F7F4F27D4CE010596BE0178
:100A70006F5E7F4F21D49985923078F089898230DA
:100A8000C0F0943019F4823041F4CBC0843019F4B2
:100A9000923079F4C6C0923051F481E02A859A8967
:100AA000291709F480E08A87CE010996BCC08230FC
:100AB00051F481E02A859A89291709F480E08A8B0C
:100AC000CE014196B0C06D847E848F849888ED8875
:100AD000FE880F89188DE0E2F0E080E090E0DC0114
:100AE000AA24BB24650120E030E0A901B3016170B4
:100AF000707061157105D1F02E0D3F1D401F511F03
:100B000015012601280E391E4A1E5B1E81E090E069
:100B1000A0E0B0E02E153F054007510718F080E037
:100B200090E0DC01820D931DA41DB51DAA0CBB1C19
:100B3000CC1CDD1C17FF09C061E0262E312C412C96
:100B4000512CA228B328C428D528319749F0EE0C9F
:100B5000FF1C001F111F9694879477946794C6CF4B
:100B60006B897C89EB85FC856E0F7F1F6E5F7F4FE5
:100B70007C8F6B8F61E0EA857A89E71709F460E082
:100B80006A8F6B8D7C8D10C0FC01E170F070309726
:100B900029F056954795379527955068B695A795AE
:100BA000979587956F5F7F4FB7FDEECF0CC0880F8D
:100BB000991FAA1FBB1F57FD8160220F331F441FBF
:100BC000551F615070408030E0E09E07E0E0AE07C6
:100BD000E0E4BE0760F36B8F7C8F6FE7E62EF12CAD
:100BE000012D112DE822F9220A231B2360E4E616C9
:100BF000F1040105110561F487FD0AC021153105D5
:100C00004105510529F0805C9F4FAF4FBF4F807861
:100C10008D8F9E8FAF8FB8A383E0898FCE014996C9
:100C200002C082E091E07BD2A096E2E1A4C6A8E1F6
:100C3000B0E0ECE1F6E08BC669837A838B839C831A
:100C40002D833E834F8358878E01075F1F4FCE0150
:100C50000196B80131D381E1E82EF12CEC0EFD1E96
:100C6000CE010596B70128D39985923008F483C048
:100C70008989823008F47BC02A853A8923272A870C
:100C8000943011F0923021F4981709F06CC071C0C3
:100C9000843039F41D861E861F86188A1C861B86A2
:100CA0006AC0823019F484E0898765C08B859C8591
:100CB0002B893C89821B930B9C878B872D853E85D6
:100CC0004F855889ED88FE880F89188D2E153F05B0
:100CD0004007510738F4220F331F441F551F019757
:100CE0009C878B876FE170E0A12CB12CC12CA0E414
:100CF000DA2E80E090E0DC012E153F054007510719
:100D000040F08A299B29AC29BD292E193F09400BA7
:100D1000510BD694C794B794A794220F331F441F46
:100D2000551F6150704041F76FE7E62EF12C012D01
:100D3000112DE822F9220A231B2360E4E616F104B0
:100D40000105110561F487FD0AC021153105410532
:100D5000510529F0805C9F4FAF4FBF4F80788D8742
:100D60009E87AF87B88B8E01075F1F4F04C0870136
:100D700002C002E011E0C801D2D16896EAE003C6E1
:100D8000A8E1B0E0E5ECF6E0E6C569837A838B8301
:100D90009C832D833E834F8358878E01075F1F4FAF
:100DA000CE010196B80188D281E1E82EF12CEC0E3B
:100DB000FD1ECE010596B7017FD28985823038F0BD
:100DC0008989823020F0C801B701DFD201C08FEFDE
:100DD0006896E6E0DCC5A8E1B0E0E0EFF6E0BBC570
:100DE00069837A838B839C832D833E834F835887CB
:100DF0008E01075F1F4FCE010196B8015DD281E1E0
:100E0000E82EF12CEC0EFD1ECE010596B70154D252
:100E10008985823038F08989823020F0C801B70195
:100E2000B4D201C081E06896E6E0B1C5A8E0B0E0C8
:100E3000EBE1F7E090C57B018C0183E08983D80169
:100E4000C7018827B7FD83959927AA27BB27282F95
:100E50008A83E114F1040105110519F482E0898304
:100E600036C08EE190E09C838B83222389F080E062
:100E7000E81680E0F80680E0080780E8180759F1D6
:100E800010950095F094E094E11CF11C011D111DDA
:100E9000ED82FE820F831887C801B701E6D09C015E
:100EA000215030401216130694F4022E04C0EE0CAA
:100EB000FF1C001F111F0A94D2F7ED82FE820F83E0
:100EC00018878EE190E0821B930B9C838B83CE016D
:100ED000019625D104C060E070E080E09FEC289688
:100EE000E6E055C5ACE0B0E0E7E7F7E038C5698378
:100EF0007A838B839C83CE010196BE016B5F7F4F0B
:100F0000DBD18D81823081F1823070F1843021F427
:100F10008E81882369F10AC02F81388537FD24C06E
:100F20006E812F3131053CF0662311F120E030E075
:100F300040E050E821C08EE190E0821B930B2985B0
:100F40003A854B855C8504C056954795379527951E
:100F50008A95D2F7662381F050954095309521957A
:100F60003F4F4F4F5F4F08C020E030E0A90104C061
:100F70002FEF3FEF4FEF5FE7B901CA012C96E2E098
:100F80000AC5A8E0B0E0E6ECF7E0E3C47B018C0121
:100F90001A82611571058105910519F482E0898332
:100FA0005EC083E089838EE1C82ED12CDC82CB82A7
:100FB000ED82FE820F831887C801B70156D0FC016D
:100FC0003197F7FF3AC0AA27BB27AE1BBF0B21E022
:100FD00030E040E050E00A2E04C0220F331F441FCF
:100FE000551F0A94D2F721503040404050402E21E6
:100FF0003F214023512361E070E080E090E0211523
:1010000031054105510519F460E070E0CB0104C0E1
:1010100016950795F794E794AA95D2F7E62AF72A4A
:10102000082B192BED82FE820F8318878EE190E04A
:101030008E1B9F0B9C838B8312C0309781F00E2EEA
:1010400004C0EE0CFF1C001F111F0A94D2F7ED82A2
:10105000FE820F831887CE1ADF0ADC82CB82CE0194
:1010600001965DD02896E8E090C4AF92BF92CF92EF
:10107000DF92EF92FF920F931F937B018C0180E030
:10108000E81680E0F80681E0080780E0180758F4C9
:10109000EFEFEE16F1040105110509F090F480E080
:1010A00090E0DC0117C0F0E0EF16F0E0FF06F0E0A2
:1010B0000F07F1E01F0750F480E190E0A0E0B0E0FE
:1010C00009C088E090E0A0E0B0E004C088E190E0D2
:1010D000A0E0B0E020E230E040E050E0281B390B17
:1010E0004A0B5B0B5701680104C0D694C794B794B0
:1010F000A7948A95D2F7D601C501865F9E4FFC0161
:101100008081281B310941095109C9011F910F91A3
:10111000FF90EF90DF90CF90BF90AF900895EF9247
:10112000FF920F931F93CF93DF93FC0124813581AE
:101130004681578161818081823020F44061EFEFE8
:10114000F0E0A3C0843009F49BC0823009F492C05F
:10115000211531054105510509F48FC00280F38145
:10116000E02D8FEFE238F8070CF05AC0C2E8DFEF4D
:10117000CE1BDF0BCA31D1056CF579018A010C2E2B
:1011800004C016950795F794E7940A94D2F781E086
:1011900090E0A0E0B0E00C2E04C0880F991FAA1FB9
:1011A000BB1F0A94D2F70197A109B10982239323A7
:1011B000A423B52321E030E040E050E00097A105F2
:1011C000B10519F420E030E0A9012E293F29402B78
:1011D000512B03C020E030E0A901DA01C9018F776B
:1011E0009070A070B07080349105A105B10539F4FC
:1011F00027FF09C0205C3F4F4F4F5F4F04C0215C69
:101200003F4F4F4F5F4FE1E0F0E0203080E0380784
:1012100080E0480780E4580728F5E0E0F0E022C0CD
:10122000E038F1056CF5E158FF4FDA01C9018F771D
:101230009070A070B07080349105A105B10539F4AB
:1012400027FF09C0205C3F4F4F4F5F4F04C0215C18
:101250003F4F4F4F5F4F57FF05C056954795379506
:101260002795319687E056954795379527958A9526
:10127000D1F70BC0E0E0F0E005C0E0E0F0E005C031
:10128000EFEFF0E020E030E0A9018E2F879588276E
:101290008795942F9F77679566276795E695E22E49
:1012A000A92FA82BFE2FF62B622F732F8A2F9F2F8B
:1012B000CDB7DEB7E6E06BC3DC01FB012C911196E4
:1012C0003C91119712968C911297482F4F7750E0CE
:1012D000982F991F9927991F13966C911397862F12
:1012E000880F892B90E0661F6627661F6183009731
:1012F00039F5211531054105510511F482E029C068
:1013000082E89FEF9383828367E0220F331F441F9D
:10131000551F6A95D1F783E0808309C0220F331FE0
:10132000441F551F828193810197938382832030CC
:1013300080E0380780E0480780E4580778F320C051
:101340008F3F910579F4211531054105510519F4B7
:1013500084E08083089544FF03C081E0808310C04F
:1013600010820EC08F5790409383828383E08083E6
:1013700087E0220F331F441F551F8A95D1F7506411
:1013800024833583468357830895FC01DB019081D4
:10139000923008F449C08C91823008F445C09430F2
:1013A00051F461818430B1F511962C91119730E0A0
:1013B000261B310941C0843021F0923041F4823043
:1013C000B1F111968C9111978823A1F12DC0618103
:1013D000823001F111968C9111976817D9F422810E
:1013E000338112968D919C9113978217930794F0F5
:1013F00028173907BCF0248135814681578114961E
:101400008D919D910D90BC91A02D82179307A407FB
:10141000B50718F4662341F00DC0281739074A07AD
:101420005B0728F4662331F021E030E005C020E0BE
:1014300030E002C02FEF3FEFC9010895982F8032AE
:1014400078F487E880937A0080917C0080648076CD
:10145000892B80937C0080917A00806480937A004D
:1014600080917A0086FDFCCF80917C0085FF05C0CD
:1014700080917900282F30E004C0209178003091CD
:101480007900C9010895DACF0895A0E0B0E0209175
:1014900000013091010140E050E0BC01CD010ED2CD
:1014A0009B01AC0180917C0085FF0BC0B901CA0192
:1014B00061587F4F8F4F9F4F2FEF30E040E050E05B
:1014C0000AC0B901CA0161507E4F8F4F9F4F2FEF65
:1014D00033E040E050E011D2C901089580917C00D2
:1014E00085FF04C08091790090E0CFCF8091780093
:1014F00090917900CACF982F803278F487E8809352
:101500007A0080917C0080648076892B80937C00B7
:1015100080917A00806480937A0080917A0086FDC1
:10152000FCCFDCCFE8CF0895282F883068F481E025
:1015300090E002C0880F991F2A95E2F7282FAAE2AF
:10154000B0E0EBE2F0E029C08E3080F430E02850CB
:10155000304081E090E002C0880F991F2A95E2F7A1
:10156000282FA4E2B0E0E5E2F0E017C0853130F0CA
:1015700020E0A0E0B0E0E0E0F0E00FC030E02E506E
:10158000304081E090E002C0880F991F2A95E2F771
:10159000282FA7E2B0E0E8E2F0E06F3F19F4808185
:1015A000822709C0662319F08081822B04C09081B4
:1015B000822F8095892380838C91822B8C93089530
:1015C000E0EBF0E083EF8083808184BDE1EBF0E02D
:1015D00082E08083808185BDE4EBF0E01082808131
:1015E000E3EBF0E08083808188BD88B587BD86E02D
:1015F00060E09ADF85E060E097DF8BE060E094DFF9
:1016000083E060E091CF80910A02882321F481E099
:1016100080930A02D5CF0895CF93DF93EC01F3DFD7
:10162000D7FD02C020E004C0D095C195DF4F21E076
:10163000CE01CF3FD10519F014F08FEF90E02223B7
:1016400019F018BC87BD02C088BD17BCDF91CF91CF
:101650000895E2CF0895CF93DF93EC01D4DFD7FD57
:1016600002C020E004C0D095C195DF4F21E0CE013B
:10167000CF3FD10519F014F08FEF90E0222329F02D
:101680001092B4008093B30004C08093B400109211
:10169000B300DF91CF910895DECF089520910B0222
:1016A000222311F488E901C088E18093C100809170
:1016B000110290911202892B79F090910C02809185
:1016C0000E02981748F4222339F48091C1008062F9
:1016D0008093C100789408958091C1008F7DF8CFE8
:1016E000EF92FF920F931F937B018C0180E0D6DF76
:1016F00060EA75E286E290E06E197F09800B910B3B
:1017000033E0660F771F881F991F3A95D1F724E0C1
:10171000EE0CFF1C001F111F2A95D1F7A80197019D
:10172000ECD03093C5002093C4001F910F91FF901F
:10173000EF900895D5CF08951F920F920FB60F9294
:1017400011242F938F939F93EF93FF932091C600C3
:10175000E0911302F0911402309781F090910D0204
:1017600080910F02981750F480910D02E80FF11D3F
:10177000208380910D028F5F80930D0290910D0266
:1017800080910F02981731F480911002882311F094
:1017900010920D02FF91EF919F918F912F910F90D9
:1017A0000FBE0F901F9018951F920F920FB60F92B9
:1017B00011248F939F93EF93FF93E0911102F09187
:1017C00012023097F9F080910C0290910E02891765
:1017D00038F58091C00085FF23C080910C02E80F8E
:1017E000F11D80818093C60080910C028F5F8093F1
:1017F0000C0216C080910B02882321F48091C10055
:10180000806203C08091C1008F7D8093C100FF91F1
:10181000EF919F918F910F900FBE0F901F90189591
:1018200080910C02891770F7E5CF2F928F939F93C9
:101830002FB680911602909117020196809316029E
:101840009093170290E080911802891F80931802EC
:1018500090911E029C5F90931E0280911D02805108
:101860009742C0F090931E0280931D02809119024E
:1018700090911A0201968093190290931A0290E0B7
:1018800080911B02891F80931B0280911C02891F7B
:1018900080931C022FBE9F918F912F90189528EE58
:1018A00033E009C0F9016F9364E06A95F1F76F9135
:1018B0003197C9F701970097A9F70895629FD00162
:1018C000739FF001829FE00DF11D649FE00DF11DFB
:1018D000929FF00D839FF00D749FF00D659FF00DAA
:1018E0009927729FB00DE11DF91F639FB00DE11D97
:1018F000F91FBD01CF0111240895A1E21A2EAA1BE0
:10190000BB1BFD010DC0AA1FBB1FEE1FFF1FA217AF
:10191000B307E407F50720F0A21BB30BE40BF50BAC
:10192000661F771F881F991F1A9469F76095709535
:10193000809590959B01AC01BD01CF0108952F9238
:101940003F924F925F926F927F928F929F92AF924F
:10195000BF92CF92DF92EF92FF920F931F93CF939C
:10196000DF93CDB7DEB7CA1BDB0B0FB6F894DEBF33
:101970000FBECDBF09942A88398848885F846E8459
:101980007D848C849B84AA84B984C884DF80EE80A3
:10199000FD800C811B81AA81B981CE0FD11D0FB6AC
:1019A000F894DEBF0FBECDBFED010895F894FFCFD0
:1019B0008813000000000000000000010202030381
:1019C00003030404040404040404050505050505D3
:1019D00005050505050505050505060606060606B1
:1019E0000606060606060606060606060606060697
:1019F0000606060606060606060607070707070781
:101A00000707070707070707070707070707070766
:101A10000707070707070707070707070707070756
:101A20000707070707070707070707070707070746
:101A30000707070707070707070708080808080830
:101A40000808080808080808080808080808080816
:101A50000808080808080808080808080808080806
:101A600008080808080808080808080808080808F6
:101A700008080808080808080808080808080808E6
:101A800008080808080808080808080808080808D6
:101A900008080808080808080808080808080808C6
:101AA00008080808080808080808080808080808B6
:0A1AB00008080808080808080808DC
:00000001FF
